:100000000C9446000C945D000C945D000C945D0013
:100010000C945D000C945D000C945D000C945D00EC
:100020000C945D000C945D000C945D000C945D00DC
:100030000C945D000C945D000C945D000C945D00CC
:100040000C945D000C945D000C945D000C945D00BC
:100050000C945D000C945D000C945D000C945D00AC
:100060000C945D000C945D000C945D000C945D009C
:100070000C945D000C945D000C945D000C945D008C
:100080000C945D000C945D000C945D0011241FBE67
:10009000CFEFD0E4DEBFCDBF11E0A0E0B1E0ECE6F1
:1000A000F2E000E00BBF02C007900D92AE30B10746
:1000B000D9F70E9488000C9434010C940000CF936F
:1000C000DF9300D01F92CDB7DEB789837B836A832D
:1000D00089818A3031F48A819B81BC018DE00E9444
:1000E0005F0080EC90E0FC018081882F90E08072BE
:1000F00099270097B1F386EC90E02981FC012083D9
:1001000080E090E00F900F900F90DF91CF910895D5
:10011000CF93DF9300D0CDB7DEB781E290E0FC0152
:10012000108282E290E02FEFFC01208387E290E0D2
:100130002FEFFC01208388E290E0FC0110821A82FC
:10014000198280E290E0FC0180818A838A81882F75
:1001500090E081709927009739F48A81882F90E088
:1001600082709927009719F080E6898377C08A8189
:10017000882F90E0837099278330910539F08A8128
:10018000882F90E084709927009719F080E7898381
:1001900065C08A81882F90E0857099278530910508
:1001A00041F08A81882F90E08670992786309105EA
:1001B00019F488E3898352C08A81882F90E0877080
:1001C00099278730910579F08A81882F90E088708F
:1001D0009927009741F48A81882F90E089709927A8
:1001E0008930910519F48CE3898338C08A81882F7E
:1001F00090E08A7099278A30910581F08A81882F52
:1002000090E08B7099278B30910541F08A81882F7F
:1002100090E08C7099278C30910519F48EE38983D6
:100220001DC08A81882F90E08D7099278D309105AF
:1002300081F08A81882F90E08E7099278E30910509
:1002400041F08A81882F90E08F7099278F30910537
:1002500019F48FE3898302C080E4898388E290E007
:0C0260002981FC0120836DCFF894FFCFB2
:0E026C0000000002000000005F000000000023
:00000001FF
