:100000000C9446000C945D000C945D000C945D0013
:100010000C945D000C945D000C945D000C945D00EC
:100020000C945D000C945D000C945D000C945D00DC
:100030000C945D000C945D000C945D000C945D00CC
:100040000C945D000C945D000C945D000C945D00BC
:100050000C945D000C945D000C945D000C945D00AC
:100060000C945D000C945D000C945D000C945D009C
:100070000C945D000C945D000C945D000C945D008C
:100080000C945D000C945D000C945D0011241FBE67
:10009000CFEFD0E4DEBFCDBF11E0A0E0B1E0E4E3FC
:1000A000F2E000E00BBF02C007900D92AE30B10746
:1000B000D9F70E9488000C9418010C940000CF938B
:1000C000DF9300D01F92CDB7DEB789837B836A832D
:1000D00089818A3031F48A819B81BC018DE00E9444
:1000E0005F0080EC90E0FC018081882F90E08072BE
:1000F00099270097B1F386EC90E02981FC012083D9
:1001000080E090E00F900F900F90DF91CF910895D5
:10011000CF93DF93CDB7DEB727970FB6F894DEBF46
:100120000FBECDBF81E290E0FC01108282E290E040
:100130002FEFFC01208384E290E0FC01108285E235
:1001400090E02FEFFC01208387E290E02FEFFC018D
:10015000208388E290E02FEFFC0120838AE290E088
:100160002FEFFC0120838BE290E0FC0110821A82C9
:100170001B821C8219821D821F821E8280E290E0F7
:10018000FC0180818A8383E290E0FC0180818B8383
:1001900086E290E0FC0180818C838A81282F30E008
:1001A0008B81882F90E0280F391F8C81882F90E059
:1001B000820F931F9F838E838E819F818D3891053F
:1001C00018F081E0898301C019829A818C81891796
:1001D00090F48A81282F30E08C81882F90E0A9014B
:1001E000481B590BCA0181359105B4F08981869568
:1001F0008695898311C08C81282F30E08A81882FD1
:1002000090E0F901E81BF90BCF018135910524F04D
:1002100089818695869589838E81982F9C7F898197
:10022000892B8D838BE290E02D81FC012083A6CF6A
:04023000F894FFCF70
:0E02340000000002000000005F00000000005B
:00000001FF
